{"abi":[{"type":"constructor","inputs":[{"name":"_settlementContract","type":"address","internalType":"contract ICowSettlement"}],"stateMutability":"nonpayable"},{"type":"function","name":"approve","inputs":[{"name":"token","type":"address","internalType":"contract IERC20"},{"name":"target","type":"address","internalType":"address"},{"name":"amount","type":"uint256","internalType":"uint256"}],"outputs":[],"stateMutability":"nonpayable"},{"type":"function","name":"flashLoanAndSettle","inputs":[{"name":"lender","type":"address","internalType":"address"},{"name":"loan","type":"tuple","internalType":"struct IFlashLoanSolverWrapper.LoanRequest","components":[{"name":"token","type":"address","internalType":"contract IERC20"},{"name":"amount","type":"uint256","internalType":"uint256"}]},{"name":"settlement","type":"bytes","internalType":"bytes"}],"outputs":[],"stateMutability":"nonpayable"},{"type":"function","name":"onFlashLoan","inputs":[{"name":"","type":"address","internalType":"address"},{"name":"","type":"address","internalType":"address"},{"name":"","type":"uint256","internalType":"uint256"},{"name":"","type":"uint256","internalType":"uint256"},{"name":"","type":"bytes","internalType":"bytes"}],"outputs":[{"name":"","type":"bytes32","internalType":"bytes32"}],"stateMutability":"nonpayable"},{"type":"function","name":"settlementAuthentication","inputs":[],"outputs":[{"name":"","type":"address","internalType":"contract ICowAuthentication"}],"stateMutability":"view"},{"type":"function","name":"settlementContract","inputs":[],"outputs":[{"name":"","type":"address","internalType":"contract ICowSettlement"}],"stateMutability":"view"}],"bytecode":{"object":"0x60c060405234801561000f575f5ffd5b50604051610c33380380610c3383398101604081905261002e916100d5565b80806001600160a01b03166080816001600160a01b031681525050806001600160a01b0316632335c76b6040518163ffffffff1660e01b81526004016020604051808303815f875af1158015610086573d5f5f3e3d5ffd5b505050506040513d601f19601f820116820180604052508101906100aa91906100d5565b6001600160a01b031660a052506100f79050565b6001600160a01b03811681146100d2575f5ffd5b50565b5f602082840312156100e5575f5ffd5b81516100f0816100be565b9392505050565b60805160a051610b0861012b5f395f8181606d015261033101525f818160f40152818161017601526105e50152610b085ff3fe608060405234801561000f575f5ffd5b5060043610610064575f3560e01c8063e1f21c671161004d578063e1f21c67146100da578063ea42418b146100ef578063f24cc7eb14610116575f5ffd5b806302ebcbea1461006857806323e30c8b146100b9575b5f5ffd5b61008f7f000000000000000000000000000000000000000000000000000000000000000081565b60405173ffffffffffffffffffffffffffffffffffffffff90911681526020015b60405180910390f35b6100cc6100c7366004610911565b610129565b6040519081526020016100b0565b6100ed6100e8366004610988565b61015e565b005b61008f7f000000000000000000000000000000000000000000000000000000000000000081565b6100ed6101243660046109c6565b610303565b5f610132610565565b507f439148f0bbc682ca079e46d6e2c2f0c1e3b820f1a291b069d8882abf8cf18dd99695505050505050565b3373ffffffffffffffffffffffffffffffffffffffff7f00000000000000000000000000000000000000000000000000000000000000001614610202576040517f08c379a000000000000000000000000000000000000000000000000000000000815260206004820152601d60248201527f4f6e6c792063616c6c61626c6520696e206120736574746c656d656e7400000060448201526064015b60405180910390fd5b6040517f095ea7b300000000000000000000000000000000000000000000000000000000815273ffffffffffffffffffffffffffffffffffffffff83811660048301526024820183905284169063095ea7b3906044016020604051808303815f875af1158015610274573d5f5f3e3d5ffd5b505050506040513d601f19601f820116820180604052508101906102989190610a4e565b6102fe576040517f08c379a000000000000000000000000000000000000000000000000000000000815260206004820152600f60248201527f417070726f76616c206661696c6564000000000000000000000000000000000060448201526064016101f9565b505050565b6040517f02cc250d0000000000000000000000000000000000000000000000000000000081523360048201527f000000000000000000000000000000000000000000000000000000000000000073ffffffffffffffffffffffffffffffffffffffff16906302cc250d90602401602060405180830381865afa15801561038b573d5f5f3e3d5ffd5b505050506040513d601f19601f820116820180604052508101906103af9190610a4e565b610415576040517f08c379a000000000000000000000000000000000000000000000000000000000815260206004820152601960248201527f4f6e6c792063616c6c61626c65206279206120736f6c7665720000000000000060448201526064016101f9565b7f13d79a0b0000000000000000000000000000000000000000000000000000000061044083836106d5565b7fffffffff0000000000000000000000000000000000000000000000000000000016146104c9576040517f08c379a000000000000000000000000000000000000000000000000000000000815260206004820152601860248201527f4f6e6c7920736574746c65282920697320616c6c6f776564000000000000000060448201526064016101f9565b5f5c15610532576040517f08c379a000000000000000000000000000000000000000000000000000000000815260206004820152601260248201527f50656e64696e6720736574746c656d656e74000000000000000000000000000060448201526064016101f9565b61053c82826106e8565b6105578461054d6020860186610a74565b856020013561070d565b61055f610823565b50505050565b5f61056e61082a565b90505f8151116105da576040517f08c379a000000000000000000000000000000000000000000000000000000000815260206004820152601560248201527f4e6f20736574746c656d656e742070656e64696e67000000000000000000000060448201526064016101f9565b6105e2610823565b5f7f000000000000000000000000000000000000000000000000000000000000000073ffffffffffffffffffffffffffffffffffffffff16826040516106289190610a8f565b5f604051808303815f865af19150503d805f8114610661576040519150601f19603f3d011682016040523d82523d5f602084013e610666565b606091505b50509050806106d1576040517f08c379a000000000000000000000000000000000000000000000000000000000815260206004820152601360248201527f536574746c656d656e742072657665727465640000000000000000000000000060448201526064016101f9565b5050565b5f600482106106e2575081355b92915050565b80805f5d505f5b818110156102fe5780830135602082041981815d50506020016106ef565b6040517f5cffe9de00000000000000000000000000000000000000000000000000000000815230600482015273ffffffffffffffffffffffffffffffffffffffff838116602483015260448201839052608060648301525f608483018190529190851690635cffe9de9060a4016020604051808303815f875af1158015610796573d5f5f3e3d5ffd5b505050506040513d601f19601f820116820180604052508101906107ba9190610a4e565b90508061055f576040517f08c379a000000000000000000000000000000000000000000000000000000000815260206004820152601b60248201527f466c617368206c6f616e2077617320756e7375636365737366756c000000000060448201526064016101f9565b5f80805d50565b60605f5c6020601f820181900490810267ffffffffffffffff81111561085257610852610aa5565b6040519080825280601f01601f19166020018201604052801561087c576020820181803683370190505b509250825f5b8281101561089f5780195c60206001909201918202830152610882565b50919091525090565b73ffffffffffffffffffffffffffffffffffffffff811681146108c9575f5ffd5b50565b5f5f83601f8401126108dc575f5ffd5b50813567ffffffffffffffff8111156108f3575f5ffd5b60208301915083602082850101111561090a575f5ffd5b9250929050565b5f5f5f5f5f5f60a08789031215610926575f5ffd5b8635610931816108a8565b95506020870135610941816108a8565b94506040870135935060608701359250608087013567ffffffffffffffff81111561096a575f5ffd5b61097689828a016108cc565b979a9699509497509295939492505050565b5f5f5f6060848603121561099a575f5ffd5b83356109a5816108a8565b925060208401356109b5816108a8565b929592945050506040919091013590565b5f5f5f5f84860360808112156109da575f5ffd5b85356109e5816108a8565b945060407fffffffffffffffffffffffffffffffffffffffffffffffffffffffffffffffe082011215610a16575f5ffd5b50602085019250606085013567ffffffffffffffff811115610a36575f5ffd5b610a42878288016108cc565b95989497509550505050565b5f60208284031215610a5e575f5ffd5b81518015158114610a6d575f5ffd5b9392505050565b5f60208284031215610a84575f5ffd5b8135610a6d816108a8565b5f82518060208501845e5f920191825250919050565b7f4e487b71000000000000000000000000000000000000000000000000000000005f52604160045260245ffdfea26469706673582212209a9b5b578f25405602569a917ab66648a6e2e2b3a751353d6099c3eee88fb50464736f6c634300081c0033","linkReferences":{}},"methodIdentifiers":{"approve(address,address,uint256)":"e1f21c67","flashLoanAndSettle(address,(address,uint256),bytes)":"f24cc7eb","onFlashLoan(address,address,uint256,uint256,bytes)":"23e30c8b","settlementAuthentication()":"02ebcbea","settlementContract()":"ea42418b"},"id":26}