{"abi":[{"type":"constructor","inputs":[{"name":"_settlementContract","type":"address","internalType":"contract ICowSettlement"}],"stateMutability":"nonpayable"},{"type":"function","name":"approve","inputs":[{"name":"token","type":"address","internalType":"contract IERC20"},{"name":"target","type":"address","internalType":"address"},{"name":"amount","type":"uint256","internalType":"uint256"}],"outputs":[],"stateMutability":"nonpayable"},{"type":"function","name":"flashLoanAndSettle","inputs":[{"name":"lender","type":"address","internalType":"contract IERC3156FlashLender"},{"name":"loan","type":"tuple","internalType":"struct ERC3156FlashLoanSolverWrapper.LoanRequest","components":[{"name":"token","type":"address","internalType":"contract IERC20"},{"name":"amount","type":"uint256","internalType":"uint256"}]},{"name":"settlement","type":"bytes","internalType":"bytes"}],"outputs":[],"stateMutability":"nonpayable"},{"type":"function","name":"onFlashLoan","inputs":[{"name":"","type":"address","internalType":"address"},{"name":"","type":"address","internalType":"address"},{"name":"","type":"uint256","internalType":"uint256"},{"name":"","type":"uint256","internalType":"uint256"},{"name":"","type":"bytes","internalType":"bytes"}],"outputs":[{"name":"","type":"bytes32","internalType":"bytes32"}],"stateMutability":"nonpayable"},{"type":"function","name":"settlementAuthentication","inputs":[],"outputs":[{"name":"","type":"address","internalType":"contract ICowAuthentication"}],"stateMutability":"view"},{"type":"function","name":"settlementContract","inputs":[],"outputs":[{"name":"","type":"address","internalType":"contract ICowSettlement"}],"stateMutability":"view"}],"bytecode":{"object":"0x60c060405234801561000f575f5ffd5b50604051610c26380380610c2683398101604081905261002e916100c4565b6001600160a01b038116608081905260408051632335c76b60e01b81529051632335c76b9160048082019260209290919082900301815f875af1158015610077573d5f5f3e3d5ffd5b505050506040513d601f19601f8201168201806040525081019061009b91906100c4565b6001600160a01b031660a052506100e6565b6001600160a01b03811681146100c1575f5ffd5b50565b5f602082840312156100d4575f5ffd5b81516100df816100ad565b9392505050565b60805160a051610b0c61011a5f395f8181606d015261049701525f818160f4015281816101af01526102e10152610b0c5ff3fe608060405234801561000f575f5ffd5b5060043610610064575f3560e01c8063e1f21c671161004d578063e1f21c67146100da578063ea42418b146100ef578063f24cc7eb14610116575f5ffd5b806302ebcbea1461006857806323e30c8b146100b9575b5f5ffd5b61008f7f000000000000000000000000000000000000000000000000000000000000000081565b60405173ffffffffffffffffffffffffffffffffffffffff90911681526020015b60405180910390f35b6100cc6100c7366004610915565b610129565b6040519081526020016100b0565b6100ed6100e836600461098c565b6102c9565b005b61008f7f000000000000000000000000000000000000000000000000000000000000000081565b6100ed6101243660046109ca565b610469565b5f5f6101336107ef565b90505f8151116101a4576040517f08c379a000000000000000000000000000000000000000000000000000000000815260206004820152601560248201527f4e6f20736574746c656d656e742070656e64696e67000000000000000000000060448201526064015b60405180910390fd5b6101ac61086d565b5f7f000000000000000000000000000000000000000000000000000000000000000073ffffffffffffffffffffffffffffffffffffffff16826040516101f29190610a52565b5f604051808303815f865af19150503d805f811461022b576040519150601f19603f3d011682016040523d82523d5f602084013e610230565b606091505b505090508061029b576040517f08c379a000000000000000000000000000000000000000000000000000000000815260206004820152601360248201527f536574746c656d656e7420726576657274656400000000000000000000000000604482015260640161019b565b507f439148f0bbc682ca079e46d6e2c2f0c1e3b820f1a291b069d8882abf8cf18dd998975050505050505050565b3373ffffffffffffffffffffffffffffffffffffffff7f00000000000000000000000000000000000000000000000000000000000000001614610368576040517f08c379a000000000000000000000000000000000000000000000000000000000815260206004820152601d60248201527f4f6e6c792063616c6c61626c6520696e206120736574746c656d656e74000000604482015260640161019b565b6040517f095ea7b300000000000000000000000000000000000000000000000000000000815273ffffffffffffffffffffffffffffffffffffffff83811660048301526024820183905284169063095ea7b3906044016020604051808303815f875af11580156103da573d5f5f3e3d5ffd5b505050506040513d601f19601f820116820180604052508101906103fe9190610a68565b610464576040517f08c379a000000000000000000000000000000000000000000000000000000000815260206004820152600f60248201527f417070726f76616c206661696c65640000000000000000000000000000000000604482015260640161019b565b505050565b6040517f02cc250d0000000000000000000000000000000000000000000000000000000081523360048201527f000000000000000000000000000000000000000000000000000000000000000073ffffffffffffffffffffffffffffffffffffffff16906302cc250d90602401602060405180830381865afa1580156104f1573d5f5f3e3d5ffd5b505050506040513d601f19601f820116820180604052508101906105159190610a68565b61057b576040517f08c379a000000000000000000000000000000000000000000000000000000000815260206004820152601960248201527f4f6e6c792063616c6c61626c65206279206120736f6c76657200000000000000604482015260640161019b565b7f13d79a0b000000000000000000000000000000000000000000000000000000006105a68383610874565b7fffffffff00000000000000000000000000000000000000000000000000000000161461062f576040517f08c379a000000000000000000000000000000000000000000000000000000000815260206004820152601860248201527f4f6e6c7920736574746c65282920697320616c6c6f7765640000000000000000604482015260640161019b565b5f5c15610698576040517f08c379a000000000000000000000000000000000000000000000000000000000815260206004820152601260248201527f50656e64696e6720736574746c656d656e740000000000000000000000000000604482015260640161019b565b6106a28282610887565b5f73ffffffffffffffffffffffffffffffffffffffff8516635cffe9de306106cd6020880188610a8e565b6040517fffffffff0000000000000000000000000000000000000000000000000000000060e085901b16815273ffffffffffffffffffffffffffffffffffffffff92831660048201529116602482015260208701356044820152608060648201525f608482015260a4016020604051808303815f875af1158015610753573d5f5f3e3d5ffd5b505050506040513d601f19601f820116820180604052508101906107779190610a68565b9050806107e0576040517f08c379a000000000000000000000000000000000000000000000000000000000815260206004820152601b60248201527f466c617368206c6f616e2077617320756e7375636365737366756c0000000000604482015260640161019b565b6107e861086d565b5050505050565b60605f5c6020601f820181900490810267ffffffffffffffff81111561081757610817610aa9565b6040519080825280601f01601f191660200182016040528015610841576020820181803683370190505b509250825f5b828110156108645780195c60206001909201918202830152610847565b50919091525090565b5f80805d50565b5f60048210610881575081355b92915050565b80805f5d505f5b818110156104645780830135602082041981815d505060200161088e565b73ffffffffffffffffffffffffffffffffffffffff811681146108cd575f5ffd5b50565b5f5f83601f8401126108e0575f5ffd5b50813567ffffffffffffffff8111156108f7575f5ffd5b60208301915083602082850101111561090e575f5ffd5b9250929050565b5f5f5f5f5f5f60a0878903121561092a575f5ffd5b8635610935816108ac565b95506020870135610945816108ac565b94506040870135935060608701359250608087013567ffffffffffffffff81111561096e575f5ffd5b61097a89828a016108d0565b979a9699509497509295939492505050565b5f5f5f6060848603121561099e575f5ffd5b83356109a9816108ac565b925060208401356109b9816108ac565b929592945050506040919091013590565b5f5f5f5f84860360808112156109de575f5ffd5b85356109e9816108ac565b945060407fffffffffffffffffffffffffffffffffffffffffffffffffffffffffffffffe082011215610a1a575f5ffd5b50602085019250606085013567ffffffffffffffff811115610a3a575f5ffd5b610a46878288016108d0565b95989497509550505050565b5f82518060208501845e5f920191825250919050565b5f60208284031215610a78575f5ffd5b81518015158114610a87575f5ffd5b9392505050565b5f60208284031215610a9e575f5ffd5b8135610a87816108ac565b7f4e487b71000000000000000000000000000000000000000000000000000000005f52604160045260245ffdfea26469706673582212207b053fbf810ab8b0ac4e82bd8a6103d898f08e01d073e35311c60c4b600eb40b64736f6c634300081c0033","linkReferences":{}},"methodIdentifiers":{"approve(address,address,uint256)":"e1f21c67","flashLoanAndSettle(address,(address,uint256),bytes)":"f24cc7eb","onFlashLoan(address,address,uint256,uint256,bytes)":"23e30c8b","settlementAuthentication()":"02ebcbea","settlementContract()":"ea42418b"},"id":25}