{"abi":[{"type":"constructor","inputs":[{"name":"_settlementContract","type":"address","internalType":"contract ICowSettlement"}],"stateMutability":"nonpayable"},{"type":"function","name":"approve","inputs":[{"name":"token","type":"address","internalType":"contract IERC20"},{"name":"target","type":"address","internalType":"address"},{"name":"amount","type":"uint256","internalType":"uint256"}],"outputs":[],"stateMutability":"nonpayable"},{"type":"function","name":"executeOperation","inputs":[{"name":"","type":"address[]","internalType":"address[]"},{"name":"","type":"uint256[]","internalType":"uint256[]"},{"name":"","type":"uint256[]","internalType":"uint256[]"},{"name":"","type":"address","internalType":"address"},{"name":"","type":"bytes","internalType":"bytes"}],"outputs":[{"name":"","type":"bool","internalType":"bool"}],"stateMutability":"nonpayable"},{"type":"function","name":"flashLoanAndSettle","inputs":[{"name":"lender","type":"address","internalType":"address"},{"name":"loan","type":"tuple","internalType":"struct IFlashLoanSolverWrapper.LoanRequest","components":[{"name":"token","type":"address","internalType":"contract IERC20"},{"name":"amount","type":"uint256","internalType":"uint256"}]},{"name":"settlement","type":"bytes","internalType":"bytes"}],"outputs":[],"stateMutability":"nonpayable"},{"type":"function","name":"settlementAuthentication","inputs":[],"outputs":[{"name":"","type":"address","internalType":"contract ICowAuthentication"}],"stateMutability":"view"},{"type":"function","name":"settlementContract","inputs":[],"outputs":[{"name":"","type":"address","internalType":"contract ICowSettlement"}],"stateMutability":"view"}],"bytecode":{"object":"0x60c060405234801561000f575f5ffd5b50604051610ed2380380610ed283398101604081905261002e916100d5565b80806001600160a01b03166080816001600160a01b031681525050806001600160a01b0316632335c76b6040518163ffffffff1660e01b81526004016020604051808303815f875af1158015610086573d5f5f3e3d5ffd5b505050506040513d601f19601f820116820180604052508101906100aa91906100d5565b6001600160a01b031660a052506100f79050565b6001600160a01b03811681146100d2575f5ffd5b50565b5f602082840312156100e5575f5ffd5b81516100f0816100be565b9392505050565b60805160a051610da761012b5f395f8181606d015261031701525f818160f60152818161015c01526105cb0152610da75ff3fe608060405234801561000f575f5ffd5b5060043610610064575f3560e01c8063e1f21c671161004d578063e1f21c67146100dc578063ea42418b146100f1578063f24cc7eb14610118575f5ffd5b806302ebcbea14610068578063920f5c84146100b9575b5f5ffd5b61008f7f000000000000000000000000000000000000000000000000000000000000000081565b60405173ffffffffffffffffffffffffffffffffffffffff90911681526020015b60405180910390f35b6100cc6100c73660046109ac565b61012b565b60405190151581526020016100b0565b6100ef6100ea366004610a8e565b610144565b005b61008f7f000000000000000000000000000000000000000000000000000000000000000081565b6100ef610126366004610acc565b6102e9565b5f61013461054b565b5060019998505050505050505050565b3373ffffffffffffffffffffffffffffffffffffffff7f000000000000000000000000000000000000000000000000000000000000000016146101e8576040517f08c379a000000000000000000000000000000000000000000000000000000000815260206004820152601d60248201527f4f6e6c792063616c6c61626c6520696e206120736574746c656d656e7400000060448201526064015b60405180910390fd5b6040517f095ea7b300000000000000000000000000000000000000000000000000000000815273ffffffffffffffffffffffffffffffffffffffff83811660048301526024820183905284169063095ea7b3906044016020604051808303815f875af115801561025a573d5f5f3e3d5ffd5b505050506040513d601f19601f8201168201806040525081019061027e9190610b54565b6102e4576040517f08c379a000000000000000000000000000000000000000000000000000000000815260206004820152600f60248201527f417070726f76616c206661696c6564000000000000000000000000000000000060448201526064016101df565b505050565b6040517f02cc250d0000000000000000000000000000000000000000000000000000000081523360048201527f000000000000000000000000000000000000000000000000000000000000000073ffffffffffffffffffffffffffffffffffffffff16906302cc250d90602401602060405180830381865afa158015610371573d5f5f3e3d5ffd5b505050506040513d601f19601f820116820180604052508101906103959190610b54565b6103fb576040517f08c379a000000000000000000000000000000000000000000000000000000000815260206004820152601960248201527f4f6e6c792063616c6c61626c65206279206120736f6c7665720000000000000060448201526064016101df565b7f13d79a0b0000000000000000000000000000000000000000000000000000000061042683836106bb565b7fffffffff0000000000000000000000000000000000000000000000000000000016146104af576040517f08c379a000000000000000000000000000000000000000000000000000000000815260206004820152601860248201527f4f6e6c7920736574746c65282920697320616c6c6f776564000000000000000060448201526064016101df565b5f5c15610518576040517f08c379a000000000000000000000000000000000000000000000000000000000815260206004820152601260248201527f50656e64696e6720736574746c656d656e74000000000000000000000000000060448201526064016101df565b61052282826106ce565b61053d846105336020860186610b7a565b85602001356106f3565b61054561087d565b50505050565b5f610554610884565b90505f8151116105c0576040517f08c379a000000000000000000000000000000000000000000000000000000000815260206004820152601560248201527f4e6f20736574746c656d656e742070656e64696e67000000000000000000000060448201526064016101df565b6105c861087d565b5f7f000000000000000000000000000000000000000000000000000000000000000073ffffffffffffffffffffffffffffffffffffffff168260405161060e9190610b95565b5f604051808303815f865af19150503d805f8114610647576040519150601f19603f3d011682016040523d82523d5f602084013e61064c565b606091505b50509050806106b7576040517f08c379a000000000000000000000000000000000000000000000000000000000815260206004820152601360248201527f536574746c656d656e742072657665727465640000000000000000000000000060448201526064016101df565b5050565b5f600482106106c8575081355b92915050565b80805f5d505f5b818110156102e45780830135602082041981815d50506020016106d5565b60408051600180825281830190925230915f91906020808301908036833701905050905083815f8151811061072a5761072a610bd8565b73ffffffffffffffffffffffffffffffffffffffff92909216602092830291909101909101526040805160018082528183019092525f9181602001602082028036833701905050905083815f8151811061078657610786610bd8565b60209081029190910101526040805160018082528183019092525f918160200160208202803683370190505090505f815f815181106107c7576107c7610bd8565b6020908102919091018101919091526040805191820181525f80835290517fab9c4b5d0000000000000000000000000000000000000000000000000000000081523092919073ffffffffffffffffffffffffffffffffffffffff8b169063ab9c4b5d90610844908a908a908a908a908a908a908a90600401610c8b565b5f604051808303815f87803b15801561085b575f5ffd5b505af115801561086d573d5f5f3e3d5ffd5b5050505050505050505050505050565b5f80805d50565b60605f5c6020601f820181900490810267ffffffffffffffff8111156108ac576108ac610bab565b6040519080825280601f01601f1916602001820160405280156108d6576020820181803683370190505b509250825f5b828110156108f95780195c602060019092019182028301526108dc565b50919091525090565b5f5f83601f840112610912575f5ffd5b50813567ffffffffffffffff811115610929575f5ffd5b6020830191508360208260051b8501011115610943575f5ffd5b9250929050565b73ffffffffffffffffffffffffffffffffffffffff8116811461096b575f5ffd5b50565b5f5f83601f84011261097e575f5ffd5b50813567ffffffffffffffff811115610995575f5ffd5b602083019150836020828501011115610943575f5ffd5b5f5f5f5f5f5f5f5f5f60a08a8c0312156109c4575f5ffd5b893567ffffffffffffffff8111156109da575f5ffd5b6109e68c828d01610902565b909a5098505060208a013567ffffffffffffffff811115610a05575f5ffd5b610a118c828d01610902565b90985096505060408a013567ffffffffffffffff811115610a30575f5ffd5b610a3c8c828d01610902565b90965094505060608a0135610a508161094a565b925060808a013567ffffffffffffffff811115610a6b575f5ffd5b610a778c828d0161096e565b915080935050809150509295985092959850929598565b5f5f5f60608486031215610aa0575f5ffd5b8335610aab8161094a565b92506020840135610abb8161094a565b929592945050506040919091013590565b5f5f5f5f8486036080811215610ae0575f5ffd5b8535610aeb8161094a565b945060407fffffffffffffffffffffffffffffffffffffffffffffffffffffffffffffffe082011215610b1c575f5ffd5b50602085019250606085013567ffffffffffffffff811115610b3c575f5ffd5b610b488782880161096e565b95989497509550505050565b5f60208284031215610b64575f5ffd5b81518015158114610b73575f5ffd5b9392505050565b5f60208284031215610b8a575f5ffd5b8135610b738161094a565b5f82518060208501845e5f920191825250919050565b7f4e487b71000000000000000000000000000000000000000000000000000000005f52604160045260245ffd5b7f4e487b71000000000000000000000000000000000000000000000000000000005f52603260045260245ffd5b5f8151808452602084019350602083015f5b82811015610c35578151865260209586019590910190600101610c17565b5093949350505050565b5f81518084528060208401602086015e5f6020828601015260207fffffffffffffffffffffffffffffffffffffffffffffffffffffffffffffffe0601f83011685010191505092915050565b5f60e0820173ffffffffffffffffffffffffffffffffffffffff8a16835260e060208401528089518083526101008501915060208b0192505f5b81811015610cf957835173ffffffffffffffffffffffffffffffffffffffff16835260209384019390920191600101610cc5565b50508381036040850152610d0d818a610c05565b9150508281036060840152610d228188610c05565b73ffffffffffffffffffffffffffffffffffffffff87166080850152905082810360a0840152610d528186610c3f565b915050610d6560c083018461ffff169052565b9897505050505050505056fea264697066735822122000967184e77cc4178c51225cb687e0b45b0326fc3348a895b2948e5f3ded4d5564736f6c634300081c0033","linkReferences":{}},"methodIdentifiers":{"approve(address,address,uint256)":"e1f21c67","executeOperation(address[],uint256[],uint256[],address,bytes)":"920f5c84","flashLoanAndSettle(address,(address,uint256),bytes)":"f24cc7eb","settlementAuthentication()":"02ebcbea","settlementContract()":"ea42418b"},"id":25}